:020000041000EA
:1000000000B5324B212058609868022188439860DF
:10001000D860186158612E4B002199600221596106
:100020000121F02299502B49196001219960352056
:1000300000F044F80222904214D00621196600F024
:1000400034F8196E01211966002018661A6600F04E
:100050002CF8196E196E196E052000F02FF8012189
:100060000842F9D1002199601B49196000215960AB
:100070001A491B48016001219960EB211966A021F2
:10008000196600F012F800219960164914480160C1
:100090000121996001BC002800D000471248134993
:1000A000086003C880F30888084703B5996A0420EC
:1000B0000142FBD001200142F8D103BD02B5186610
:1000C0001866FFF7F2FF186E186E02BD00000240BE
:1000D000000000180000070000035F00212200005C
:1000E000F4000018222000A00001001008ED00E03C
:1000F00000000000000000000000000074B24E7A12
:1001000000200420F7010010C3010010C5010010F9
:10011000C1010010C1010010C1010010C101001097
:10012000C1010010C1010010C1010010C701001081
:10013000C1010010C1010010C9010010CB01001065
:10014000CD010010CD010010CD010010CD01001037
:10015000CD010010CD010010CD010010CD01001027
:10016000CD010010CD010010CD010010CD01001017
:10017000CD010010CD010010CD010010CD01001007
:10018000CD010010CD010010CD010010CD010010F7
:10019000CD010010CD010010CD010010CD010010E7
:1001A000CD010010CD010010CD010010CD010010D7
:1001B000CD010010CD010010CD010010CD010010C7
:1001C00000BE00BE00BE00BE00BE00BEEFF3058054
:1001D000103800BEF2EB8871D8020010F402001053
:1001E0003402001090A31AE700202249086006C8D4
:1001F00081F30888104720480068002835D10DA4F5
:100200000ECC002902D000F012F8F9E71B491C4A75
:10021000002000E001C19142FCD11A4988471A49E7
:1002200088471A49884700BEFDE701C901C29A42C2
:10023000FBD37047F4020010C0000020B44300203C
:10024000E8450010C043002000580020285A001044
:100250000000042000000420285A00100010042090
:1002600000100420000000007047094800F014F856
:100270000047000008ED00E0000000D0005800201A
:10028000D45C0020E52000203D050020A9200020AE
:10029000575600000000000001B40248844601BC2B
:1002A000604700BFB931002006005250ABB3605325
:1002B0002D55002006005250861C030238550020A0
:1002C000060052505422A29D435500200500525072
:0802D000DE65F468285A0010F5
:1002D8004F5500205B550020A802001067550020EC
:0C02E800B4020010C0020010CC02001094
:1002F400F8B5C04606480749091A8B10C90FC91832
:1003040010B5491003D0044B002B00D0984710BD02
:10031400005800200058002000000000054B10B5D4
:10032400002B03D00449054800E000BFFFF7E2FFBB
:1003340010BDC04600000000485A0020B44300200D
:10034400A0238001DB05C01880235B0402691A42E4
:10035400FCD17047004870475049434F43688020A0
:10036400C000834204D8002008600248136070472C
:100374000148FCE74F4B4F4B4552522109C80343F8
:10038400180010B503242040234203D108601060F4
:10039400014810BD0148FCE74F4B4F4B45525221D9
:1003A40010B5FFF7EBFF10BD30B503680B4CA3424B
:1003B40011D98124406864051D18A5420BD203435A
:1003C400DBB2002B07D18024E400A04203D80860EC
:1003D4000348136030BD0348FCE7C046FF9F00108C
:1003E4004F4B4F4B4552522101210C4A13688B430A
:1003F400136001230A4A5B42D367C02209495200B1
:100404008B50094B094A0A491A6003685A688B6081
:100414001B6883F308881047FEE7C04610E000E03D
:1004240004E100E000E100E000E00040BFEDFBFF7C
:1004340000ED00E0074B08481360FB235B035360A7
:1004440080235B01936080235B00D3608023DB0007
:100454001361704700A000104F4B4F4B002302481C
:100464000B6013607047C0464F4B4F4B80210A4BC3
:100474000268C90510B51960084B002A09D0084A5A
:100484001A62084A5A6200221100100001F0ECFEC0
:10049400FEE71A62F6E7C04600B00540008005405A
:1004A4000DF005B1F20FFA4E03680B4A10B59342F2
:1004B40010D9812241685205581890420AD21A0074
:1004C4000A43120506D1F0221206981804F046F9E0
:1004D400024810BD0248FCE7FF8F00104F4B4F4B02
:1004E40045525221020010B506CA180003F0BAFEA4
:1004F400004810BD4F4B4F4B102210B5054B41180F
:10050400884200D110BD9C691442FCD11C6804705F
:100514000130F5E70040034010B50C2805D9C3218C
:10052400044B054A054801F0DBFEC30204481843A6
:1005340010BDC046784600205B4700209546002049
:1005440019801F00F0B5036887B000934368012049
:100554000392019303F0CAFF0400FFF7DDFF2C238D
:10056400984303001B48A20118431B4BA025D11834
:1005740080239B010B43872680210027ED05F6008D
:100584000904AF5119601E21144B52191B680293C0
:1005940063001940E223FF330B4302994B40DB0510
:1005A4000F49DB0D0B600099019B11609B0805A9A5
:1005B40051609360D0602000FFF7C2FE094B200019
:1005C400EF5003F089FFAB59039A0748136007B053
:1005D400F0BDC046180080001000005034040050E4
:1005E40034140050340400004F4B4F4BF0B585B029
:1005F40000900120019103F079FF0400FFF78CFFC4
:100604002C23984303001C48A02518438727012363
:10061400ED05FF005B42EB51184BA201D11880237A
:100624009B010B43802109041960154B660019686E
:100634001E231E40033333434B40DB051149DB0DBE
:100644000B608023104EDB00A95952190B43AB51A8
:100654000099019B11609B0803A951609360D060CD
:100664002000FFF76DFE0023EF592000AB5103F08B
:1006740033FFF84305B0F0BD1800800010000050AF
:1006840034040050341400503404000070B505687C
:10069400040041682800FFF7A9FFA26803000020B6
:1006A4009A420ED180232A689B059A4209D36A682C
:1006B40023689A4205D361685B189A4201D80130D5
:1006C400104070BD10B50400C0B0F422002103A88E
:1006D40003F0C2FDA16823680291032162680093BC
:1006E4000192DBB20A40134302D00F4840B010BD60
:1006F4006846FFF7CBFF0028F7D0802190204901FE
:10070400000204F02BF88022902069465200000277
:1007140004F078F8802268460449520003F010FF80
:100724000028E2D10248E1E745525221009000102E
:100734004F4B4F4BF0231B0670B560C81400E818EC
:10074400320004F05FF831002800FFF74FFF20600B
:10075400004870BD4F4B4F4B10B503C81400FFF752
:1007640045FF2060004810BD4F4B4F4BF0B58DB096
:1007740000AF192000F05EF9D024802324069B04E6
:1007840063620F20636100F055F9002201210F20FC
:1007940000F03EF980231B02A3620A2000F0F6FF5A
:1007A4007A4B7B4A196A914244D15A6A794B9A42EC
:1007B40040D16368784D7949280001F04BFB022150
:1007C400002000F00FF90221012000F00BF9C022F3
:1007D4002B6B12021340724A1360724B9D446B469A
:1007E400BB600023012B53D00024D022802126009B
:1007F4006D4B120689047B6151613B600823DB1851
:10080400DB199B19012118007B60FFF775FED023CB
:1008140080221B069204DA617B6808211A780C2373
:100824005B18DB199B5D9A4226D10134042C25D038
:100834002600E3E763681B04BCD55C4C2000FFF78B
:1008440025FF0028B6D00120594923680A6882434D
:100854000A60012257495242CA67C02156484900DA
:100864004250564A5649116056495A688B601B6873
:1008740083F3088810479DE70024D9E73B693A6869
:1008840093420BD0504B514A5148524901F028FD34
:100894000823DB180421D819FFF72EFE00221420A8
:1008A40039694D4C030053431B191E68B14215D1DD
:1008B4005968B868FB609B68043089009B00C318C2
:1008C40042187B62B861FA613862FFF715FEFB6873
:1008D400DB68002B1DD1BB62FB6227E001320A2AD0
:1008E400E0D13E4B7B6108210C235B180422D9190B
:1008F400B86803F0B7FC2021BA68141DA869030086
:100904000B400842FAD11078013228609442F5D1A4
:1009140068E708202422202112180918D219B8697E
:10092400C91998472D4B78619842DCD0B96AF869A7
:10093400FFF7E2FDFC682669002E1CD07B6A3A6A48
:10094400F969B869B047254B78619842CBD0082142
:100954000C235B180422D919B868A668FC6A03F052
:1009640081FC2022BB680136B6001C19A419A342DD
:1009740004D1012336E71A4B7B61E8E7A9691142E8
:10098400FCD1197801332960F1E7C04600800540A5
:100994000DF005B1F20FFA4E0040034090D0030071
:1009A40030500340E8FBFFFF53594E4300900010C2
:1009B40010E000E004E100E000E100E000E00040BD
:1009C400BFEDFBFF00ED00E0FF460020474700209D
:1009D4001747002052020000784700204552522158
:1009E4004F4B4F4B084B8200D218402310B514686C
:1009F400C0006340C0242340802464012243136068
:100A0400024BC018416010BD04C0014000400140C9
:100A1400074B8000C0180368C90092000A435A407B
:100A24000C231A4080235B0103431A607047C046BD
:100A340004C001400123D022834010B51206936202
:100A440005219361FFF7CEFF10BD0000024B18682B
:100A54008007C00F7047C04600C00640EFF3108007
:100A640072B6034A1368002BFCD0BFF35F8F704744
:100A74002C0100D0BFF35F8F0022024B1A6080F379
:100A8400108870472C0100D00722CB08C35C0120DA
:100A9400114088401840431E9841C0B27047F8B5D1
:100AA40005000C001700FFF7D9FF210006002800FD
:100AB400FFF7EAFF002803D02100380001F0A2FC70
:100AC4000723E2081C40063BA340A95C30000B430B
:100AD400AB54FFF7CFFFF8BDF7B505000E001400C7
:100AE4001F00FFF7BBFF0190BC4202D901246442FE
:100AF4000DE021002800FFF7C7FF002811D10722CD
:100B0400012322409340E1086A5C13436B5401982B
:100B1400FFF7B0FF002C06DA002E04D0089801F08D
:100B240071FC0134E0E72000FEBD000070B5050053
:100B34000C00FFF793FF210006002800FFF7A4FF35
:100B4400002805D13321084B084A094801F0C8FBA5
:100B540007230122E1081C40A2406B5C3000934350
:100B64006B54FFF787FF70BD40480020BC4800204D
:100B74005F4800200021044B044ABFF35F8F02C387
:100B84009342FAD17047C046000100D0800100D0E2
:100B9400044A1078431CDBB2172B00D910231370BE
:100BA4007047C04640570020074B10309B688000B8
:100BB400C150BFF35F8FBFF35F8F0021034B1960F8
:100BC40082F310887047C04600ED00E0240100D095
:100BD400038810B5DA0A1C2A05D0B121044B054A52
:100BE400054801F07DFB5B051B150433C01810BDDF
:100BF400CB4800206F4A0020E04800200A4B091A25
:100C0400CA180A4B10B5081F9A4201D8C90705D55E
:100C1400A321074B074A084801F062FBE0230005C3
:100C2400400D1B02184310BDFC070000FE0F00001E
:100C340039490020634A0020E04800200122824014
:100C4400034B1B6813405A1E9341D8B27047C046E9
:100C540000E100E0002904D0034B1860034B186046
:100C64007047034BFBE7C04680E200E000E100E090
:100C740080E100E00123834010B51800FFF7EAFF8C
:100C840010BD0000024B10309B688000C0587047B4
:100C940000ED00E070B504000D00EFF3108672B6AD
:100CA4000C4A1368002BFCD0BFF35F8F2000FFF7C2
:100CB400E9FF094B984207D0A84205D08621074B8B
:100CC400074A084801F00CFB320029002000FFF716
:100CD4006BFF70BD240100D0CD01001069490020D4
:100CE4007E4A0020E0480020F0B585B001900F0056
:100CF400EFF3108372B64D4A02931368002BFCD0B5
:100D0400BFF35F8F4A4B019C9B681034A200D658F6
:100D1400484B9E4266D0BE4200D180E0464BF31A57
:100D24002F2B5FD80198FFF789FF002103900198CA
:100D3400FFF7A0FFBFF35F8FEFF30582002A07D010
:100D4400944205D036213D4B3D4A3E48FF315EE09A
:100D54000123340038499C430C2000238C4606258B
:100D6400A1686557B94214D1002D19DA002A44D17B
:100D7400002B40D0FF329A71334A9A8033492E4A6D
:100D84000B78A371324BA41A644163431B0D0B709F
:100D940024E0002D45DB454323002C006444DEE7BA
:100DA4000C206843244F3B189A68A260DA79E271F8
:100DB4009B795BB2A371002B1BDB0430C019FFF7D6
:100DC40007FF231D01001800FFF718FF0C236B43D6
:100DD400FF181E4BA0801A781D70BA7103990198F0
:100DE400FFF748FF3100029A0198FFF7DDFE05B0D6
:100DF400F0BD1848EAE70F4EC0E7174B1B1B083B32
:100E04005A081B0B05D0AB21144B154A0D4801F0B1
:100E140067FA144BA380144B1343E380DEE71E00F0
:100E2400E0E76A21114B064A06488FE7240100D007
:100E340000ED00E0CD010010445700209F49002040
:100E4400504A0020E048002001BDFFFFD05C002094
:100E5400AAAA000001BD00007E570020D14900204D
:100E6400394A002000F0FFFF00F8FFFFE1490020AD
:100E7400F8B501242A4B0443E21A2F2A06D9C721C4
:100E8400284B294A2948490001F02AFAEFF3058240
:100E9400002A05D19221264B234A2448FF31F3E747
:100EA400EFF3108772B6234909680029FBD0BFF31A
:100EB4005F8F21490600F61A76417143090D1F4ED2
:100EC40049B28C46B168920089580D000021A542B0
:100ED4000FD1B3681A4999501A4B1A788271624635
:100EE4001A70BFF35F8F0023124A136087F31088D0
:100EF400F8BD06229A56624508D10C234B43084A92
:100F0400D318FF229A71104A9A80E5E701310C3315
:100F14000429EED10D4B044A04489F31BEE7C04674
:100F240044570020E74900201F4A0020E0480020E1
:100F34000F4A0020240100D0AAAA000000ED00E01E
:100F4400CD010010D05C002001BDFFFF194A002034
:100F5400054B064A1360064A136053609360D360DE
:100F640013615361936170478080808000E400E0E6
:100F740004E400E0024BC918890001607047C046D0
:100F84004000003410B50400FFF702FE0100200009
:100F9400FFF7F0FFFF232371BFF35F8F10BD10B580
:100FA4000400FFF7F5FD01002000FFF7E3FFFF2336
:100FB400A380BFF35F8F10BD30B5084D03006C6A8A
:100FC400012200208C4206D3AD6A10009D4202D259
:100FD400081B431E9841104030BDC04600400540E8
:100FE40070B50C000500080000F05AFD2000094906
:100FF40000F094FCFFF7CCFD074B2C75C018D023F0
:101004001B061B6880006B75044BA4006860E550E8
:1010140070BDC0467D10002040000034605A00209E
:101024000A4B1868EFF3108272B601680029FCD0ED
:10103400BFF35F8F1B68BFF35F8F0021196082F3DA
:10104400108840BF002000217047C046745C002017
:1010540010B5002903D003681B7B8B4205D23C21C9
:10106400054B064A064801F03BF9064B8068C9184F
:101074000901401810BDC0465D4B0020EE4E002013
:101084007F4B0020FFFFFF0FF8B517000600FFF7A6
:10109400DFFF3900056844683000FFF7D9FF426874
:1010A4000123A24204D802D10268AA4200D8002334
:1010B400D8B2F8BD3F2110B5024B034A034801F0F2
:1010C4000FF9C046D24B0020BF4E0020ED4B00204C
:1010D40010B5040000F0E8FB002901DAFFF7EAFF8D
:1010E40020606160200010BD0B0010B5002902D003
:1010F400027B8A4205D26821054B064A064801F064
:10110400EFF80321594300680339401810BDC04665
:101114004E4C00209E4E00206A4C002010B5427BAD
:1011240001238A4204D0FFF7DFFF83785A1E9341DC
:10113400180010BDF8B507000D001400FFF7D4FF28
:101144000600002D05D16F210E4B0F4A0F4801F008
:10115400C7F8002C04D170210D4B0B4A0B48F6E75D
:10116400A54204D171210B4B074A0848EFE721003F
:101174003800FFF7B9FF85703378002B00D0437037
:101184003470F8BDD04C00208C4E00206A4C0020F6
:10119400E74C0020DA4C0020F0B585B002930CAB8C
:1011A4001C780DAB1B780700056801920393002C93
:1011B4000BD021002800FFF7B1FF002815D06721CC
:1011C4002B4B2C4A2C4801F08BF8AC7B002C46D0DE
:1011D40021002800FFF788FF4378AB73002B00D170
:1011E400EB73002383704370037021003800FFF712
:1011F4002FFF019B21000360029B43600A9B8360D5
:101204000B9BC3602800FFF76FFF002383704370BC
:1012140003706E7B9E4201D16C730EE0220031009C
:101224006B68A868984700281CD022003100280069
:10123400FFF780FF6E73B44211D1387D019A029B8F
:1012440000F0BAFB051E06D0039B002B03D121003E
:10125400386800F055FD0E9B002B00D01D70200057
:1012640005B0F0BD320021002800FFF763FFD3E78B
:10127400F04C0020AA4E00207F4B002010B500291E
:1012840003D003681B7B8B4205D24121044B054AE2
:10129400054801F025F8C0680139401810BDC04662
:1012A4005D4B00206D4E00207F4B00200023F0B5E5
:1012B40093B009937A4B8200D5580E9010A8FFF78B
:1012C40007FF109B119C6A680A930B94EFF3108339
:1012D40072B606931368002BFCD0BFF35F8F2F68A0
:1012E4007C7B002C6AD021002800FFF7B1FE026845
:1012F400436806000A980B99121A8B41002B51DCA3
:1013040001D1002A4ED10021380000F0EFFCA042A8
:1013140005D08E21634B644A644800F0E1FFB7684E
:1013240032687368F6680C920D93002F04D19221F1
:101334005F4B5D4A5D48F0E721002800FFF79EFF00
:101344000378002009931B0223432B616B68BFF3CE
:101354005F8F00221A60069B83F31088974200D1A6
:1013640099E0099B31001B02234318000A93B847F4
:10137400069007916A68EFF3108372B60F931368AF
:10138400002BFCD0BFF35F8F079B002B3FDA2B6948
:10139400002B55D00A9A934218D0A121454B424ABA
:1013A4004248BAE7326873680E9800F005FB0026DD
:1013B4000022002337000C920D93C7E7002200237C
:1013C4002600270020000C920D93BFE70C9A0D9B7A
:1013D40006980799121A8B41802109068B4202D381
:1013E4000122354B5242002104910131280003911E
:1013F400029401960097FFF7CFFE00236A682B61E1
:10140400BFF35F8F13600F9B83F3108856E7069B2F
:10141400079A134314D02B69002B11D00A9A9342D4
:1014240004D0A421234B204A204876E710A8FFF7D4
:101434004FFE109A119B0698079912184B41CBE75F
:101444002E68002C05D021003000FFF767FE00282D
:1014540004D0F621194B1A4A1A485EE7F17B002999
:101464000FD03000FFF740FE4470B37B002B0DD04B
:1014740021002800F473FFF701FF037801330370A0
:10148400BBE7B37B002BF3D1B473F1E7FB210E4B25
:101494000B4A0C4841E7002800D00FE713B0F0BD19
:1014A400605A0020184D0020D44E00207F4B0020AD
:1014B4002E4D0020374D0020FFFFFF7F734D00208D
:1014C4007F4E00206A4C0020954D002010B50B4C37
:1014D4006368002B0CD110212300094A206800F016
:1014E4007FFB032000F0D4F903212000FFF778FDEF
:1014F4000A210448FFF73EFD10BDC0468C5700206A
:10150400590E0020745C0020054810B54368002B78
:1015140005D15E21034B044A044800F0E1FE10BDEE
:101524008C570020A94D0020564E00207F4B0020F0
:10153400F0B51D0027238FB0140004AA9B180022C5
:1015440016A90978079009911A70079B5A68EFF356
:10155400108772B61368002BFCD0BFF35F8F27236C
:10156400002604AA9B180493159B22000193149B44
:101574000798009303962B000296FFF70DFE089040
:10158400B0420BD1079B5B68BFF35F8F089A1A6068
:1015940087F31088012040420FB0F0BD08990798E6
:1015A400FFF76CFE079B00785B68BFF35F8F1E60DC
:1015B40087F31088272204AB9B181B78002B04D0D8
:1015C400099B002B05D10020E6E7089B0002184385
:1015D400E2E7149B30001599984703000B43F2D0BF
:1015E40006000F00A41BBD41002906DB0AA8FFF773
:1015F4006FFD0A9C0B9DA4197D4180231B06AB4201
:1016040000D9A2E70124014D64429EE7FFFFFF7F5A
:10161400F7B505000C1E3CD04268EFF3108772B694
:101624001368002BFCD0BFF35F8F2B68E6B2180061
:1016340031000193FFF772FD2B6900281DD09C42F5
:1016440006D12C21144B154A1548FF3100F048FEF1
:1016540031002800FFF712FE240A0378E4B2A34203
:101664000ED13100019800F04BFB002809D19921DB
:101674000C4B0A4A0A484900E8E79C4200D1286119
:1016840000206B68BFF35F8F00221A6087F3108815
:10169400FEBD0800FCE7C046CA4D00203E4E0020B7
:1016A4007F4B0020EE4D0020F0B5EFF305830600DC
:1016B4000F0087B0002B02D0264800F0A3FE0624BA
:1016C4006442E517A4197D418D4206D801D18442B4
:1016D40003D8002D03DAFFF7EDFC0024002504A84D
:1016E400FFF7F6FC049A059B20002900801A994113
:1016F400002908DC01D1002805D13000390000F0B0
:10170400DDF807B0F0BDFFF7FFFE0023029301935D
:10171400114B220000932B00FFF70AFF0028ECDB9B
:1017240020002900FFF748FC0028E6D10B4B18687D
:10173400EFF3108272B601680029FCD0BFF35F8F0B
:101744001B68BFF35F8F0021196082F3108820BFEC
:10175400E6E7C046F14D0020F10D0020745C002046
:1017640037B50D0004006846FFF7B2FC00980199F4
:101774008023001969411B06994202D301200249C2
:101784004042FFF791FF37BDFFFFFF7FFA2210B5FC
:1017940000239200002102F0ABFCFFF7E1FF10BD33
:1017A4007FB5EFF3058605000C00002E05D0280058
:1017B4002100FFF701FC04B070BDFFF7A5FE084B44
:1017C4000296019600932A002300FFF7B1FE061E3D
:1017D400EDDD20BFFFF798FE3100FFF719FFE6E7C4
:1017E400F10D0020EFF30583F7B518009C4610387F
:1017F400EFF3108172B61F4B1A68002AFCD0BFF3B6
:101804005F8F01252C0084401B4A54631B4A1460DB
:101814001B4A019212781700C7403E002E402F4207
:1018240021D0154D86006F6A164D7559AF420DD300
:10183400A243154D019C75592270BFF35F8F00229E
:101844001A6081F31088954211D1F7BD62460F48A2
:101854009200121810681060BFF35F8F00221A60A4
:1018640081F31088F1E7BFF35F8F3200F7E7A847F1
:10187400EBE7C046280100D0004005403C7005401D
:10188400D15C0020785C002004590020D03F054042
:1018940010B5034B01001800024AFFF700F910BD10
:1018A4008F5C0020F84E0020034B596A0A00986AA6
:1018B400596A8A42FAD1704700400540054B5A6A7A
:1018C4008A42FCD38A4202D19A6A824200D3704788
:1018D4005A6AF7E70040054070B504000D00FFF7B1
:1018E400E3FF02000B0020002900801859418B42BD
:1018F40004D801D1824201D8002905DA3F21044BE2
:10190400044A054800F0ECFCFFF7D8FF70BDC04660
:10191400D24B0020B24F0020ED4B0020F0B5040064
:1019240085B00D00EFF3108772B61E4E3368002B9E
:10193400FCD0BFF35F8F1C4B01931C4B0293A3009D
:101944000393002D1CD02000FFF79CF9019B8342D8
:101954000BD019002000FFF79DF901212000FFF7AB
:1019640089F90123A340124A1360029B039A9D50F4
:10197400BFF35F8F0023336087F3108805B0F0BD99
:101984000121A140029BA2009D500A4B20001A781D
:101994008A4301991A70FFF7A7F929002000FFF77D
:1019A40069F9E5E7280100D0B515002004590020A5
:1019B40038600540D15C0020F0B589B0069306007C
:1019C4000592FFF771FF059B0493069B00938B42DE
:1019D40003D853D1049B834250D9EFF3108372B6DA
:1019E400274F07933B68002BFCD0BFF35F8F012484
:1019F400B440244B244D02931B780699019323434E
:101A0400DBB20393039A029B1A70059A331D9B0061
:101A14006C635A511D4BB200D1502B6A234212D130
:101A24002B6C234209D00020BFF35F8F00233B605F
:101A3400079B83F3108809B0F0BDC521144B154AE8
:101A4400154800F04DFCFFF72FFF009B8B42EAD8AE
:101A540002D1049B8342E6D8039B019A93420BD0A4
:101A64001F23012233409A4013000C4A2C626C63FA
:101A74001360029B019A1A700120D5E70120DAE76E
:101A8400280100D0D15C002000400540785C002093
:101A94001A4F0020984F00203B4F002080E200E0C6
:101AA40010B5EFF3108472B60A490B68002BFCD012
:101AB400BFF35F8F01238340074A0848136202780B
:101AC4009A430270BFF35F8F00230B6084F3108886
:101AD40010BDC046280100D000400540D15C002064
:101AE4000B0010B5002902D0027B8A4205D268217E
:101AF400054B064A064800F0F3FB032159430068EE
:101B04000339401810BDC0464E4C0020BF50002081
:101B14006A4C0020F8B507000D001400FFF7E0FF41
:101B24000600002D05D16F210E4B0F4A0F4800F01F
:101B3400D7FB002C04D170210D4B0B4A0B48F6E760
:101B4400A54204D171210B4B074A0848EFE7210055
:101B54003800FFF7C5FF85703378002B00D0437041
:101B64003470F8BDD04C0020AD5000206A4C0020E9
:101B7400E74C0020DA4C002070B506000D0014007C
:101B840000290CD0002A09D04368806898470028AF
:101B940007D0220029003000FFF7BCFF2C002000F2
:101BA40070BD2A0021003000FFF7B4FFF7E770B5DD
:101BB400002301240500067B43738473C673A64285
:101BC40006D831002800FFF78BFF0023437070BD57
:101BD40021002800FFF784FF0134E4B24470EEE7EB
:101BE40010B5017342608360FFF7E1FF10BDF7B5E4
:101BF40005000C1E21D0FFF773FF4678002E1CD081
:101C040031002800FFF76CFF00274378210047705C
:101C140028000193FFF764FF320021004770280079
:101C2400FFF7AAFF019904002800FFF7E0FF210055
:101C340002002800FFF7A0FF04002000FEBD000002
:101C4400F8B504000D001700002905D13821214BF7
:101C5400214A224800F044FBFFF742FF4378002B5F
:101C640004D03A211E4B1C4A1C48F3E78378002B0E
:101C740004D03B211B4B184A1848EBE7017820009D
:101C8400FFF7B5FF0600002F06D0E17B002913D132
:101C9400A37B002B1CD0E573002E05D0310020005F
:101CA400FFF71EFF0023837029002000FFF718FFB1
:101CB400002343703000F8BD2000FFF711FF45708A
:101CC400A37B002BE7D14221074B034A0348C1E71A
:101CD400A573E0E77A5000209A500020C74F0020F7
:101CE4001B50002040500020954D002070B5457BCE
:101CF4000A0029000400FFF7A3FF6073280070BDE9
:101D040070B504000D1E3DD0437B8B4204D10121EC
:101D1400FFF7ECFF012070BDFFF7E2FE06008178BB
:101D240000208142F7D02000FFF7DAFE0178A942B3
:101D340012D1737803700023012229002000B370AC
:101D44007370FFF77DFF617B0200814215D1712121
:101D54000D4B0E4A0E480EE02000FFF7C1FE4178FD
:101D6400A94202D173784370E5E70029F4D1094B05
:101D7400064A07486B3100F0B3FA2000FFF7FCFE77
:101D84006073C7E70800C6E7645000208250002053
:101D9400C74F0020194A0020F7B5076B04000E0056
:101DA4000192FB0718D50200C02330329B01134374
:101DB400104A1A60456A836AAD010620ED1800F0E6
:101DC4008BF90D4901F05CFBAD020100280001F024
:101DD40057FB0021FFF780FDE36A22005E40019B70
:101DE4002C3233401E0080235B0113431E602763A3
:101DF400F7BDC046010300004E0E000070B506009A
:101E040006200C0000F068F92100C00001F038FB46
:101E14000124C50907D00D4B9D4214D87F231840D7
:101E240000192C0045080022110030007462B562CC
:101E3400FFF7B2FF062000F04FF9A1014919800015
:101E440001F01EFB70BD0025014CECE7FEFF000015
:101E5400FFFF000070B5040006200E0000F03CF9FE
:101E6400051E2BD0184B9C422AD08023DB03174A33
:101E740017491360174A136018008A689043FBD10E
:101E8400154B164AE31859424B4180215B00490027
:101E9400995220003100FFF7B1FF6E220500602146
:101EA4002000FFF779FF220080232C329B0113438B
:101EB40010221A600A4B23630323A364280070BD15
:101EC40080231B04D3E7C0460080034000E00040A9
:101ED40000C0004000F000400080FCBF8A5C00208D
:101EE40001030000F0B585B001920A9A05000F00C5
:101EF400934205D23321364B364A374800F0F0F985
:101F04000C241A0E1B02039202930A9A00230298CD
:101F1400039901F0F3FA6C43304B0600E41863684C
:101F2400834200D260602B1FDBB20093C023009A6F
:101F34009B012343012A1BD8012F19D103221A60C4
:101F4400A3683B42FCD0019A236852015A40E02323
:101F54001A4080235B0123431A60032122687A40DC
:101F64000A401A600123BB40A2681342FCD01CE063
:101F7400802212011A601A4BAA00D158002907D0F6
:101F8400586901F07DFA431C032058430338FDD2FD
:101F9400019A236852015A40E0231A4080235B01CE
:101FA40023431A60009A012AD7D9802380229B01F7
:101FB400234312011A6002986660320000230399D9
:101FC40001F09CFA064CAD006051012005B0F0BD53
:101FD400CB5000203B510020DC500020008000400A
:101FE400145A002073B50C2000F0FAF8FEF72EFD09
:101FF40000280AD000232C4A2C4899000133505061
:102004000A2BFAD12A4B536273BD2A4DA86700F0FC
:102014004DF90122284B1A606B6C012BFCD1032271
:10202400264B1A60AC6B012CFCD10225052621003D
:1020340000950623224A234800F054F83300210077
:10204400214A2248009600F04DF8214B2900214DE9
:10205400009300220420FFF745FF2B0021000022FB
:1020640030000095FFF73EFF0022104C11002300C2
:1020740000940720FFF736FF00222300110000948C
:102084000820FFF72FFF0022094B110000930920BD
:102094002300FFF727FF00222B00110000950620E4
:1020A400FFF720FFB0E7C046145A0020006CDC02A2
:1020B4001BB70000008000403CB0004030B000403E
:1020C400002F685900800240008C864700C00240FF
:1020D400001BB70040597307014B8000C05870477C
:1020E400145A0020F8B51700040031480D001E00F2
:1020F40001F0C6F92F4B0100FA182F4B9A4205D96B
:1021040011212E4B2E4A2F4800F0EAF8380001F036
:10211400B7F902009823103A5B009A4204D91921B6
:10212400294B274A2748EFE7731E062B03D8069B43
:10213400013B062B04D91C21244B214A2148E3E707
:10214400069B32041E0323681643002B0FDA3F223A
:1021540023681340AB420AD1A3681B051B0D8342BD
:1021640005D1EE22E368D2021340B3421BD0184BD0
:102174009C4219D080235B01164A17491360174A01
:1021840013601F008A689743FBD1C023221D9B0163
:10219400134321222560A0601A602268002AFCDA19
:1021A4000822E6601A60F8BD80239B01E4E7C0467C
:1021B400001BB70080E84BD380F8A9324B510020B4
:1021C40068520020AA510020035200201F52002010
:1021D40000C0024000E0004000C0004000F00040A9
:1021E4008023024A9B000343D3627047008005406A
:1021F400024B1A68024B5A607047C046445A00208A
:102204000080054003008020114AC00510B5114C20
:10221400106011480460E020104CC004002906D06E
:102224002060002B05D180231B06236010BD1060A5
:10223400F7E7FA20C00058438023094A5B04984218
:1022440000D308481060FFF7D3FF8023DB05ECE7D9
:1022540000B00540FCFF01000820014000A005403B
:10226400445A0020FFFFFF0070B5040010008022D4
:102274000A4BD2051A600A4B002C0CD00125094ADE
:102284002C43DA61084A62401A6259629C62002156
:10229400FFF7B8FF70BDDC61F9E7C04600B0054048
:1022A40000800540D3C007B02D3FF84FAA22064B4B
:1022B40012011A602F220549DA60054A11605A6832
:1022C400002AFCDA7047C0460040024000B0FA0021
:1022D4000060024000BEFDE710B5FFF7FBFF000001
:1022E40037B50D0004001900074B002A01D1074B34
:1022F4001A000192009322002B00054802F0E0F836
:102304000120FFF7E7FFC04671520020365300203A
:102314007E520020294B2A4A70B51A60294E2A4B56
:102324002A4C33601900A2689143FBD1284D294BF4
:102334009D4229D3FFF756FE274B3360A368DB0188
:102344008033FBD14022254B25489A675A671A6788
:10235400DA66244B98421AD3234C244DC022200021
:10236400A96801F07FFFEFF30583AC60002B00D078
:1023740000BEFEF7FFFBFEF7EBFDFFF7A7F81C4CD2
:102384001C4B9C4217D370BD08CD9847CFE704007F
:1023940003680834002B0BD0012B05D08721164B82
:1023A400164A1748FFF79CFFFEF7F9FD2000D0E717
:1023B400FEF7E8FDFAE708CC9847E1E700E00040C3
:1023C400BFCDFBFE00F00040FE7F3C0000C000409B
:1023D400E8570020F8570020FFFFFF0100F00140FC
:1023E400E0570020E85700200000002000ED00E046
:1023F400F857002000580020AD5200203753002029
:10240400CA5200200FB407B5084802F027F8049B0D
:10241400002B07D005A91800019102F02FF80448F9
:1024240002F01CF80120FFF755FFC0462753002097
:10243400355300207047F0B585B002930D9B07001B
:1024440014000B9E01919B071ED003923500039B41
:10245400F018421B002D19D10D9B051B9B0722D49C
:1024640005B0F0BD2020029B0199B84701350C9BB3
:10247400A21BAA189D42F5D30C9A0023964200D8B9
:10248400931B1B190393E1E73500F0E70A9B013D19
:10249400585D0199029BB847D9E70200029B2020AE
:1024A4000199B84701350C9B6019AB42F5D8D7E7C1
:1024B400F0B589B0059110A90E781499049006928C
:1024C40007930E9A0F9B1198139C8D071AD401251C
:1024D4000D40002C07D0002D05D0002E02D10C2772
:1024E400394200D0013C3027BC4602E06746D7544D
:1024F4000133129F9F4201D9202BF7D13027BC46CC
:10250400002D1DD1CD0615D54D0538D4002B1CD07A
:10251400129DAB4201D0A34231D15D1E012B14D0D8
:10252400102838D1023B880655D47820D054302066
:102534006B1C5055202B3BD010E06546D55401331D
:102544009C42DFD9202BF8D1DCE7102811D18B066F
:1025540027D478231370302353702E3B2D20002E64
:1025640002D1480731D52B20D054013321E0622316
:10257400F0E70228FBD0302313702F3BEEE710283E
:1025840011D1880625D4202B12D078205D1CD0547C
:10259400202D0DD0CBE70228C9D162235355013534
:1025A400F6E75823D6E71D000228F1D1202BF4D1F9
:1025B4002023039101930092079B069A059904989E
:1025C4000294FFF738FF09B0F0BD0807F1D52020C9
:1025D400CAE7202BECD058205D1CD8E7F0B597B0A3
:1025E4000B921CAA0C9308CA219C157809900A9195
:1025F400002B06D180221021D20022408C43002AD5
:102604001FD16122A10600D541221E000027D2B2AB
:102614000A3A0D9230001E9900F032FF0D9ACBB2A7
:102624009A188446D2B2092901D83033DAB220206C
:1026340006A90918CA551E9A7B1C964201D38342E7
:1026440012D1209A019305921F9A0EAB04921E9AFE
:10265400009303920C9B0B9A0A990998069402958D
:10266400FFF726FF17B0F0BD1F006646D2E7F0B5AE
:102674009BB00E9322AB1B78209E0F93249B219D2D
:102684000993259B289C0A9333000B900C910D927F
:102694002B4305D1102221009143640540D40C0042
:1026A4006123A20600D541230027DBB20A3B109325
:1026B40030002900099A0A9B00F020FF109BD2B237
:1026C400D318DBB29C461191092A02D83032D3B216
:1026D4009C4620210AAA52186146D1550A9A7B1CAD
:1026E400AA4205D802D1099AB24201D8202B13D1AB
:1026F400279A01930592269A12AB0492099A0093A1
:1027040003920F9A0E9B02920C990D9A0B980694C1
:10271400FFF7CEFE1BB0F0BD1F000600119DC7E7FA
:102724000C00E5E7F0B593B0089009910D920C9375
:10273400189A199B1000190001F06BF9002811D1A7
:10274400189819990122D64B524201F05DF90028DC
:1027540008D1189819990122D24B524201F03EF93E
:10276400002813D01C9B0D9A04931B9B0999039377
:102774001A9B08980293189B199C009301940C9B34
:1027840000F0C2F90200100013B0F0BD0022189846
:102794001999002301F022F9002800D19AE080223F
:1027A40012069446189B0693199B6344079380234F
:1027B4001C9ADB001A400F921C9A1A4201D106237C
:1027C4001A938023069E079F1C9A1B011A40069D9C
:1027D400079B0E921D4300D081E0002A00D043E104
:1027E4000424150000230A931B9B9C4201D21B1B4B
:1027F4000A9302231C9A1A400E921C9A1A4205D07C
:10280400634263410A9A5B421A400A92002D07D040
:102814000698079932003B0001F07FF80690079173
:10282400189819990022002301F0D8F8002809D03B
:1028340080200006844606990A00079961440B002B
:10284400069207931C9A984B0999134004930A9B88
:10285400089803931A9B0293069A079B009201938C
:102864000D9A0C9B00F050F90200002C00D18AE76D
:102874001C9B65209B0600D520380C9B0999089F5A
:10288400561CB84705230593002303930A33029388
:10289400EB0F0193EB17ED185D40013C32000C9BEC
:1028A4000999089804940095FFF798FE0E9B02007E
:1028B400002B00D167E70D9BC41A0D9B1A191B9BB3
:1028C400A34200D85FE720200C9B0999089DA847E4
:1028D4000134F2E7189B199C0693079467E7079B5A
:1028E4005800724B400DC01801F0A6F8704A714BA5
:1028F40001F031F8704A714B01F006F8079B704AF9
:102904001B031B0B1A4304000D00300011006D4B18
:10291400002200F0F0FF6C4A6C4B01F01CF802003E
:102924000B002000290000F0EFFF01F09DF80500E6
:1029340001F082F8664A674B06000F0001F00BF8BD
:102944000022654B00F0E0FF01F08EF8634A0400BA
:10295400634B3000390000F0FEFF060020000F003A
:1029640001F06AF85F4A604B00F0F5FF02000B00CB
:102974003000390000F0BFFF02000B000A900B91F9
:1029840000F0E9FF0A9A0B9B06000F0010001900E3
:1029940000F0BAFF002210901191544B300039001E
:1029A40000F0BBFF0022524B00F0AEFF02000B0010
:1029B4003000390000F0B1FF00224E4B00F0A4FFBC
:1029C40002000B003000390000F0A7FF0A9A0B9BAD
:1029D4000F0080210600C905002000F08CFF0200D2
:1029E4000B003000390000F08FFF02000B0010983C
:1029F400119900F092FF0022314B00F085FF3E4B0D
:102A04000022E418230500F0A6FF069A079B06009F
:102A14000F0000F0F9FF002808D030003900002230
:102A2400334B00F07AFF06000F00013D2B00C62453
:102A340063339C42A4410E9B64420434002B00D1B6
:102A4400D0E633003B430FD0069807992B4A2C4B12
:102A540000F0D2FF002817D0069807990022294BCE
:102A640000F0BCFF00280FD01A9BAB420ADD5D1BAF
:102A74006B1E1A93802300241C9ADB001A43250042
:102A84001C92AFE60023F4E71A9B002B00D1A9E6C1
:102A94000F9B5A1E93411A9AD31A1A93A2E6C04660
:102AA400FFFFEF7FFFFFEFFFFFF7FFFF01FCFFFFDB
:102AB400FB799F501344D33FB3C8608B288AC63F29
:102AC4000000F03F0000F83F61436F63A787D23FE7
:102AD40071A379094F930A400000E03F1655B5BB36
:102AE400B16B0240EF39FAFE422EE63F00002C4063
:102AF4000000244000001840FF0300002D431CEB9D
:102B0400E2361A3F80842E41F0B59BB0209E219F6F
:102B140009900A910B920C9332003B00300039006B
:102B2400229D00F076FF002808D0249B0393239B6A
:102B3400029303230193B14B009324E0012230005C
:102B44003900AF4B524200F049FF002807D0249BC4
:102B54000393239B029304230193AA4BECE70122E2
:102B640030003900A84B524200F04EFF002814D028
:102B74000423249A1A420DD0A44A24990193039160
:102B84002399009202910C9B0B9A0A990998FFF7DA
:102B940052FC1FE003239E4AEFE700223000390075
:102BA4009C4B00F031FF002807D10022300039008F
:102BB400994B00F013FF00280ED0249B0096019738
:102BC4000493239B0B9A03930A990C9B09980295EF
:102BD400FFF7A8FD1BB0F0BD002200233000390030
:102BE40000F0FCFE002800D189E03B003200002008
:102BF400002100F080FE012306000F000D93062241
:102C04008023249C0892249ADB001C401A4211D091
:102C140000240895092D0DD917220CA92B00521850
:102C24003021093B0134281B11550890202C01D078
:102C34009C42F7D13900300000F016FF089A774B18
:102C4400D2009B181A685B6807900E920F9300F0ED
:102C5400F3FE02000B003000390000F04CFE0E9A27
:102C64000F9B00F078FE1090119100F021FF0500F9
:102C740000F0DEFE02000B001098119900F03BFEFC
:102C84000022674B1090119100F0BEFE002838D04E
:102C94000135280000F0CCFE02000B000E980F99BD
:102CA40000F0A2FE002803D00025079B0133079300
:102CB400089B002B33D00A26202C13D0089B0CAA87
:102CC400013B0893172331009B1828000134E718AF
:102CD40000F0D6FB303139702800310000F0D0FB11
:102CE400092D63D83020089B12AAE318202C34D075
:102CF400611CA3425CD10C002E21D1542DE00D9017
:102D04007DE7002210981199454B00F067FE0028DA
:102D1400CED1002D01D0EB07CAD50135C8E70798FD
:102D240000F08AFE02000B003000390000F0E3FDE1
:102D340000223B4B06000F0000F050FE00280CD18F
:102D4400002230003900364B00F05EFE002804D12A
:102D54000123079A1340D31807930A25202C11D076
:102D640017230CAA9B18079829000134E61800F0D1
:102D74005FFB303107983170290000F059FB079050
:102D84000028EBD10323249A1340012B21D1239B48
:102D9400002B1ED00D9B002B02D10C331A4202D003
:102DA400239B013B2393302212AB06E0050083E70B
:102DB40010550C009AE7E25401342399A14208D932
:102DC400202CF8D1249B01940393239B029312ABF0
:102DD400B2E6202CF6D00D9A12AB002A03D02D2295
:102DE4001A550134EEE7249A520701D52B22F7E74E
:102DF400249A1207E6D52022F2E7C0464D5300205C
:102E0400FFFFEFFF51530020FFFFEF7F44530020EB
:102E14004953002065CDCD4165CDCDC15853002027
:102E24000000E03F10B5002802D00B6849689847BD
:102E340010BD0000F0B59BB0209F0E900F910D9235
:102E44000B93002901D1A94B0E9300260BE00B9B99
:102E540001330B93252817D032000D9B0F990E9D3B
:102E6400741CA84726000B9B18780028EFD10D9BF3
:102E740032009E4200D35A1E00200D9B0F990E9CD7
:102E8400A04730001BB0F0BD0023012008241DE042
:102E94002D2A31D0302A17D0303A0025092A41D9B9
:102EA40000210B9A0C9112782E2A4BD18021C90053
:102EB4000B430B990B9A49780132080030380928E2
:102EC4005FD80A218C4636E003430B910B9A0B9989
:102ED400127801312B2A12D0DAD8202A11D0232AD1
:102EE40011D000252A2ADBD120CF002D02DA0222BC
:102EF4006D4213430B91D3E702221343E5E7042207
:102F0400FBE72343E1E71022F7E72A006243303A64
:102F14008D180B900B9A1178501C0A00303A092A2C
:102F2400F3D9BDE70A24F5E760460C9A4243303AE8
:102F34008A180C9222001178541C08003038092891
:102F4400F2D90B920B9A0B99127801316C2A2BD07F
:102F540023D8682A32D06A2A39D00B990C784A1CB3
:102F64000B92672C6FD8572C4DD8452C69D060D85C
:102F7400320020000D9B0F990E9C751CA0472E005B
:102F840071E72A29DDD104CF0C92D2430C99D217D0
:102F940011400B9A0C910232D3E7742A01D07A2A99
:102FA400DBD1802252000EE00B9A52786C2AF8D1C1
:102FB400C02292000B9913430231CFE70B9A527847
:102FC400682A02D080221343C8E7C022F2E7802295
:102FD4009200F8E70A2800D17CE10728C8D1212211
:102FE40013430593082304930C9B3200039310238B
:102FF4000293129B0F99019308CF0E9800930D9B97
:10300400FFF7ECFA0BE1200058380F28B0D801F094
:103014008BFA3400AFFFAFFFAFFFAFFFAFFFAFFFDF
:10302400AFFFAFFFAFFF34001E0134000801F6000C
:103034000801462C00D1E0E0472C99D180221201EE
:1030440013432022F1E020006938C0B20F288FD842
:103054000122274982408C461140129161460A425E
:10306400B8D08020C000782C28D10D22034200D192
:103074000C2293431A0010210AE08021C900622C1B
:1030840029D10C220B4200D00D2293431A000221B5
:10309400802310009B0018401A4200D192E00737A9
:1030A4003C00FA3BFF3B9C430C9B08920693002395
:1030B40007950491059302930CCC58E06F2C19D119
:1030C4000C22190091430A0008210342E0D00D228A
:1030D40093431A00DCE7582C1BD120220B421FD14A
:1030E4000C218B431A430431D2E7C0460522002049
:1030F400419000001022190091430A00692C14D059
:103104001C22190091430A000A210342C0D01D2247
:10311400DEE710220B4200D0112293431A0006E08E
:103124000D218B431A430331B2E70342F4D19305D3
:1031340028D507230A20002107379F433C0088CF66
:1031440008920C9A049005910692FA0F0292FA17CB
:10315400119210925A40119B14927B401593149A29
:10316400159B10981199121A8B41083407950092F7
:1031740001930F9932000D9B0E98FFF778FA060021
:10318400270070E63C1DD30513D53B6805920C9AC5
:10319400049503920A220292DA0F0192DA179B181D
:1031A4005340009332000D9B0F990E98FFF716FAC7
:1031B400E5E73B68510601D5DBB2E7E71106E5D543
:1031C4001BB2E3E73C1DD30507D50C9B0592049580
:1031D4000393029101903B68E3E73B68500608D5EE
:1031E400DBB205920C9A049503920022029101929B
:1031F400D7E71006F5D59BB2F3E720221343072245
:1032040004930C9B07379743039502930CCF0F99B4
:10321400009201930E9832000D9BFFF775FC060097
:1032240021E6672C02D18022120113430722049362
:103234000C9B07379743039502930CCF0F99009289
:1032440001930E9832000D9BFFF76CFAE7E7022218
:103254001900114001241291134215D1320005E0E6
:1032640020200D9B0F990E9CA0470C9A531C0C9385
:103274009B1BAB42F4D300239D4200D06B1E02245F
:10328400F618002D00D06C1C01CF731C32000C9377
:103294000F990D9B0E9EC0B2B047129B002B17D006
:1032A4000C9A12940AE0531C139320200D9B0F993F
:1032B4000E9EB047129B139A01331293129BAB429A
:1032C400F1D30023A54200D32B1B0C9AD3180C93E3
:1032D4000C9EC8E5390004C913920C9A1691002A71
:1032E40001D10122524213990C008A182178002935
:1032F40001D0A24214D1139A1900A41A8022D20038
:1033040011401791134203D00C9A944200D914002F
:103314000222190011401891134216D1320009E01B
:103324000134E3E7531C129320200D9B0F990E9F49
:10333400B847129AA31BD3189D42F3D80023A54281
:1033440000D32B1B0134F6181C1912960AE00C93B7
:10335400129B129A013319930F990D9B0E9FB84734
:10336400199B1293139B129A9B1B985C002807D0FD
:10337400179B002BECD00C9B0C9A013B002AE6D146
:10338400189B002B14D0129A06E0561C20200D9B8B
:103394000F990E9FB8473200129BE31A9B189D4267
:1033A400F3D80023A54200D32B1B129AD3181293EF
:1033B400169F129E57E5C0461FB503910121029046
:1033C4000093044813004A4202A9FFF733FD05B0F5
:1033D40000BDC046F52B002001480421014B1847CD
:1033E400C0570020D9310020142310B501001888DB
:1033F40004331B88984710BD162310B501001888A4
:1034040002331B88984710BDF8B50E00040000274E
:103414000125B74201D12800F8BD2068FFF7E4FF79
:1034240001C4431E9841404205400137F1E70000C2
:10343400124A936F9B0815D29066D166002905D075
:10344400FFE7FFE7FFE7516F106F704704B5802176
:103454000906C2175140002800D0C84301F06EF895
:10346400002104BDF0B5146E556E576F166FFFF74B
:10347400E3FF1466556657671667F0BD000000D079
:10348400114A936F9B0813D210665166002905D028
:10349400FFE7FFE7FFE7516F106F704704B500289F
:1034A40001D00020C04301F049F8002104BDC0460A
:1034B400F0B5146E556E576F166FFFF7E5FF14667F
:1034C400556657671667F0BD000000D094464A4A17
:1034D400926F9208624601D228E0C046F0B5464E8B
:1034E400346E756E776F366F00F020F89446424A5A
:1034F40014665566576716676246F0BD94463E4AA1
:10350400926F9208624601D254E0C046F0B53A4E3A
:10351400346E756E776F366F00F04CF89446364A09
:1035240014665566576716676246F0BD002B24DBA8
:1035340011D000293EDA00B5C943404200D101311F
:1035440000F038F8C943404200D10131DB43524214
:1035540000D1013300BD002AEBD1002801D100299C
:1035640005D00020C90FC90701D1C043410800B5E7
:1035740000F0E4FF0022002300BD00B500290ADBAF
:10358400DB43524200D1013300F014F8C9434042F6
:1035940000D1013100BDC943404200D10131DB43B8
:1035A400524200D1013300F005F8DB43524200D10E
:1035B400013300BD002923D1002B18D1002A0CD0DF
:1035C400BC460D4F38667A6600210023FFE7FFE70B
:1035D400FFE77A6F386F67467047002801D00748C5
:1035E400010000B500F0AAFF0022002300BD020084
:1035F4000B00002000217047000000D0FFFFFFFFF8
:10360400002B00D0BFE0130C28D1002AE7D080B4EF
:10361400114F39667A66FFE7FFE730B4040C7B6F1D
:10362400396F1B0423433B667A66FFE7FFE7FFE736
:10363400C04684B27B6F3D6F1B0423433B667A66AE
:10364400FFE7FFE7C04600232C042D0C7A6F386F88
:1036540000196941B0BC7047000000D0F0B5944631
:103664000025140E01D112020835140F01D11201E4
:103674000435940F01D192000235D40F01D15200C8
:103684000135D40B0134254F7C66254C3C660E0C69
:1036940093B2FFE7FFE7FFE73C6F6643360C77031F
:1036A400BE467343DF0B5B04C01AB941130C73436A
:1036B400DB18C91ACE086643360CB64493B273437A
:1036C4001F0F1B01C01AB941130C73431F0B1B05B9
:1036D400C01AB941860D8F023E436643360C092D4C
:1036E40024DB520A7243801A7703460A6643360C77
:1036F40016235B1BDE40DF40BF1964466643821B12
:103704007046043506330100D940A840C01900D3DF
:103714000131A24206D20023F0BD0000000000D017
:10372400FFFFFFFF121B0130F3D3F1E709277F1BD3
:10373400FE406446A2B27243801A00D20139220CC0
:103744007243130C1204821A99410B00704604351B
:1037540013370100F940A840801900D30131002B30
:1037640002D1A2420AD2F0BD013000D30131121BB2
:10377400FAD2013BF8D1A24200D2F0BD013000D30D
:103784000131121BF7E7F0B51C0C00D080E00CB43B
:1037940000251C0A04D11B02160E334312020835FD
:1037A4001C0B04D11B01160F3343120104359C0B6F
:1037B40004D19B00960F334392000235DC0B02D1F7
:1037C40092185B4101351C00971864410134464F3F
:1037D4007C66464C3C660E0CFFE7FFE7FFE7C046FD
:1037E4003C6F6643360C7703BE4697B27743C01BE3
:1037F40000D20139C01B00D201399FB27743C91BE3
:10380400C91B170C77437E04FF0B801BB941CE08FC
:103814006643360C0C2D33DBB644120B1F053A43BA
:103824001B0B97B27743C01B00D201399FB2774379
:10383400C91B170C77433E043F0C801BB941860D0E
:103844008F023E43664329277F1BFE400C3D77468B
:10385400AF40BF1930BCA2B2ABB272437343801AFB
:103864009941220C7243130C1204801A99410200EC
:103874000B000137001BA941F9D2781E0021F0BDCD
:103884000C277F1BFE4077467F0BAF40FF19E0E714
:1038940000245D1C07D0144F7D663966FFE7FFE7FF
:1038A400FFE7FFE73C6F95B29EB265436643401B5A
:1038B400B141150C1E0C6543664336042F0C3E4380
:1038C4002D04401BB141994204D202000B00200098
:1038D4000021F0BD01D19042F7D3801A99410134FF
:1038E4009942F2D3F6E70000000000D0FFFFFFFF8B
:1038F40048404140484018B41B4B5B68FC46019368
:1039040008BD04DF9339002018B4174B1B68FC462C
:10391400019308BD00DF9D3900209446134A926F3D
:10392400920809D2624618B40F4BDB68FC46019337
:1039340008BD0CDF553C00200C4AF0B5146E556EE2
:10394400576F166F6246FFF7EEFF084A1466556616
:1039540057671667F0BD18B4034B9B68FC46019388
:1039640008BD08DFF93A0020705A0020000000D09A
:10397400FFB550404240504059404B40594000E050
:10398400FFB5154F4C00640D03D0BC4204D10C03A9
:1039940014D80020090D09055C00640D03D0BC4255
:1039A40004D11C030AD800221B0D1B0501264B4021
:1039B40009D44B4003D58B4200D18242FFBD9942CA
:1039C400FCD19042FFBD0B43DB1803431343F5D0F6
:1039D400C9434918FFBD0000FF07000000B5FFF709
:1039E400CFFF804100BDC04600B5FFF7C9FF01D934
:1039F400002000BD012000BD00B5FFF7B9FF01D9CB
:103A0400002000BD012000BD00B5FFF7B1FF8041DB
:103A140000BD012040054A00121804D85A001218AB
:103A240001D8002070470120704700207047000033
:103A34000021002805D17047C1174840401AFAD028
:103A4400C90713B5064B1B6898470CBC441CA2401D
:103A54001005120B0349091B09051943114310BD35
:103A6400705B00201F04000010B54C00620D802321
:103A7400D218DB00D21A5B057E2A10DD9E3A13DAD7
:103A8400CC170903490819435242D1406400013458
:103A94001532202A05DAD0400843604310BD0020C7
:103AA40010BD0846604310BDC80FC018013810BDD2
:103AB40018B4044B5B6AFC46019308BD24DF053E41
:103AC40000200000705A0020132370B51D78204C8C
:103AD400012D0ED100231F499A000133A150202B40
:103AE400FAD11C4BA3641C48FFF77EFC1B4B1860E7
:103AF40070BD012DF5DD1A48FFF77EFC060019485C
:103B0400FFF77AFC023803789B007F2B05DC322117
:103B1400154B164A1648FEF7E3FB802231002000BD
:103B240000F0A0FB022DDED1124B1A88B5231B0234
:103B34009A4209D1104A114B12889A4204D1104A70
:103B4400104B12889A42CCD00020FEF75BFCC04692
:103B5400705A0020593900204C330000705B00205B
:103B64005344000053460000A85300205E54002034
:103B7400FA53002054380000D838000049460000A9
:103B84009C3800005946000007B56046002800D163
:103B940000BE01880A0A0230DF2AFAD1C9B28208BB
:103BA40004D3028840880004104300E00068024AFD
:103BB4005050039007BD0000705A00200FB403BC9E
:103BC4000CBCF0B50124E407634000E0F0B50C0D33
:103BD400CF0F661E3605891B640503D3C9434042D3
:103BE40000D30131640D03D0661CF60A07D0E41B30
:103BF40000207F00791C89078912803C24031D0D55
:103C0400DF0F6E1E36059B1B6D0503D3DB4352424B
:103C140000D301336D0D03D06E1CF60A07D0ED1BE3
:103C240000227F007B1C9B079B12803D2D032F1BD2
:103C3400661B58D4A446202E46DA20371400BC4014
:103C44001D00BD40F24033412A4380185941CB0F37
:103C540005D0C943C04300226442504151416246E9
:103C64004D0D28D10D0D07D100281FD02419404136
:103C74004941013A0D0DF9D0640006D3013000D357
:103C84000131002C01D140084000013A0BD4941CAE
:103C9400E40A04D112051144DB071944F0BDD90725
:103CA400204B194300E0D9070020F0BD0029DDD1E5
:103CB400002CDBD1F0BD0132C6074008CD072843F4
:103CC4004908002EE1D0D9E73C2E29DA203E4037BE
:103CD4001400BC4000D00124F24014431A00BB403D
:103CE4001C43D317ACE7AC46202F08DA2036040077
:103CF400B4400D00B540F84039412843A5E73C2FB6
:103D04000CDA203F40360400B44000D00124F840CF
:103D140004430800B1400C43C117EAE7100019003E
:103D2400002494E70000F07FF0B50C0D661E360504
:103D3400891BE60A6405640D02D0651CED0A04D0F3
:103D4400002001210905803C2403A4461C0D671EA4
:103D54003F05DB1BE70A6405640D02D0651CED0A10
:103D640004D0002201231B05803C240377406444D3
:103D740097B484B296B27443070C7E43150C6F4318
:103D840080B26843361802D3012000043F1830047F
:103D9400350C00197D41844688B29AB250430C0C0C
:103DA40062431F0C7C438EB27E43921902D30126D8
:103DB4003604A4191604170C3618674101BC81B2E5
:103DC4009AB25143040C62431B0C5C4380B25843C7
:103DD400121802D30120000424181004130C4018F4
:103DE40063412D185E410020474106BC88B293B25E
:103DF40058430C0C6343120C544389B251435B186F
:103E040002D301210904641819041A0C0918624127
:103E14006D1856410020474118BCF902720D114338
:103E2400F0026A0D1043ED020A0D03D16D194041F1
:103E34004941013B124E9B1B7600B3420ED26D00EA
:103E440007D30130002671416646354301D140084D
:103E540040001B05C918E4072144F0BD0BDA013307
:103E640006D1013004D101314F0D01D04908F2E7E8
:103E7400E1070020F0BD013631050020EBE700002A
:103E8400FF030000F0B51C0D671E3F05DB1BE70AAE
:103E94006405640D02D0661CF60A04D000220123D6
:103EA4001B05803C2403D0252D060026F6432E66F0
:103EB4001E096E66CE0FF619B44649004F0D02D0A6
:103EC4007E1CF60A03D000200021403F3F033E1B26
:103ED400B600B444013F7F05C91B49082E6F013663
:103EE40076089C02950D25437543ED137543AD1378
:103EF40001356D10F603761B0CB4CC02450D2C4332
:103F0400A2B2B3B25A43270C7B43350C6F43A4B21D
:103F14006C431B1902D3012424043F191C041D0CF7
:103F2400A4187D4124196D41009A91B2ACB2614349
:103F3400170C7C432B0C5F4392B25A43A41802D350
:103F440001221204BF182204230C52187B41019C45
:103F54006C431B19520ED9010A434401A01A81B2C1
:103F6400B2B2514303145A43360C734387B27743B6
:103F7400D617D21900277E4136049B191704160C54
:103F84007F185E417316ED18F301002680337541E6
:103F9400A90F06D16400690AE8055B0A184309D22F
:103FA4002FE00422944480337541A90AA8059B0A92
:103FB400184326D3404149412404009A019B0D0033
:103FC4005543641B4343E41A95B286B27543170CF8
:103FD4007E43030C5F4392B25A43B61802D30122C4
:103FE4001204BF183204330C52197B4152429C41D3
:103FF400002C02D40022013051414008CA0710436A
:10400400490802B06246D7079210084BD218084BF1
:104014009A4203D212058918C919F0BD0020002A5A
:1040240001DC3900F0BD01331905F5E7FD0300009B
:10403400FE070000002200B5203200F004F808005A
:1040440000BD000000220B150AD410B5944600F000
:1040540031F81414013400DA0021CB17144C204732
:104064000020002170476244343A0CD40C2A07DA49
:1040740004009140904052422032D440214310BD6C
:10408400D843D94310BD203207D40C469440524241
:1040940020321141D040204310BD0800C9172032FE
:1040A40003D452422032104110BD1800190010BD33
:1040B400373E00200A0DCC0F531E1B05C91A5205AA
:1040C40003D3C943404200D30131520D03D0531CE2
:1040D400DB0A07D0121B00206400611C89078912C7
:1040E400803A1203014BD21A70470000FF0300000C
:1040F40051434343C9188C46110C83B24B4310B44B
:10410400040C614392B280B2504362431C041B0C02
:10411400001910BC59411304120CC01851416144D8
:1041240070470000132310B527481C78FFF764F983
:104134000100012C36D1254C5422200000F092F8C5
:10414400234A244B12889A421CD1A7229201224B63
:1041540012889A4216D1214B1A88214B9A4211D1C6
:104164009423204A9B0112889A420BD11E4B1A8831
:104174001E4B9A4206D11E4B1E4918681E4A15232F
:10418400884202D01D48FEF73DF999000133625080
:10419400202BFAD12262E2611948FFF725F9194B65
:1041A400186010BD012CF7DD831E1B789B007F2B4C
:1041B40005DC4221144B154A1548FEF791F880227C
:1041C400024800F04FF8E7E753460000745B002014
:1041D400EE290000C40F0000C20D0000962B000061
:1041E400C0B50000182B0000CC2A000010B5000058
:1041F400FC2C000051ED8764E53F0020365300207D
:104204004C330000705B00207254002006550020DF
:10421400A454002007B56046002800D100BE0188E0
:104224000A0A0230DF2AFAD1C9B2820804D302880A
:1042340040880004104300E00068024A5050039094
:1042440007BD0000745B002001480421014B18479E
:10425400D0570020D9310020014B1B6818470000BB
:10426400D0570020014B5B6818470000D05700204E
:10427400030010B5080011001B68984710BD00002A
:10428400F7B5437D06000F001400002B12D103681C
:10429400110038009847F7BD7A5D01950A2A1BD1B1
:1042A4005A5D0D2A18D085420FDD291A3368381853
:1042B40098470AE0002AEEDD00253B7828000A2B07
:1042C40009D1337DAB4206D101950C4802213368F4
:1042D4009847280001307B1E0135AC42DCDC844267
:1042E40003DD211A3368381898473C19013C2378B8
:1042F4000D3B5A4253413375CDE7C04673550020F8
:1043040070B505000A4B1C68002C01D12C6070BDEF
:104314002368002B0AD0074B1B68002B01D09C425A
:1043240004D12900200004C9FFF7AAFF2469EBE7A0
:104334003C5A0020405A00200B6870B505000C0060
:10434400802B02D10800FFF7DBFF23685A1C226090
:10435400E418257170BD00003F2110B5024B034ADB
:104364000348FDF7BDFFC046D24B00207555002021
:10437400ED4B002010B5FDF797FA02000B1E01DA91
:10438400FFF7EAFF0021074812184B418021090674
:104394008B4202D30122044B5242044800F084F9B8
:1043A40010BDC04640420F00FFFFFF7FE0570020D2
:1043B40010B5024800F090F910BDC046E057002047
:1043C400F0B585B006000D001C000092FFF7D2FF87
:1043D40001906B1C03D1300000F0D4F80500144F99
:1043E400002C00D0134F144B1C68002C06D1019BE9
:1043F400002B01D0FFF7DCFF05B0F0BD2368002BD4
:1044040013D00E4B1B68002B01D09C420DD12A0007
:1044140031002000B847009B002B06D002ABD91D09
:104424000A23012220000B70B8472469DDE7C04647
:1044340051400020414000203C5A0020405A0020B6
:10444400054B10B51C68002C00D110BD6368002B0F
:1044540000D098472469F6E73C5A002070B505005F
:1044640000F090F804000100002328000122FFF767
:10447400A7FFFFF7E5FF200070BD000070B5A2B0F4
:1044840004000E00FFF776FF0023220001930500CD
:1044940033000A4801A9FEF78FFF019B0400002B9B
:1044A40002D001A8FFF72CFFFFF7CAFF002D01D0AF
:1044B400FFF77EFF200022B070BDC04609410020F6
:1044C4000FB407B504A901C90191FFF7D7FF03B0E1
:1044D40008BC04B01847000010B5034B01001800D5
:1044E400FCF724FB10BDC046885C002013B5054BC7
:1044F400054C0100009300220B232000FCF7ECFA8A
:1045040016BDC0468A550020885C002010B50520E1
:10451400FDF7E2FD014B186010BDC04600590020B4
:1045240010B5FFF7F3FF10BD03B47146490840000E
:104534004900095E49008E4403BC70477047C04679
:1045440030B5032A19D903000B43551E9B0710D01D
:10455400002303E05A1C9D4212D01300C25CCC5CC1
:10456400A242F7D0101B0CE0043A04300431032AB1
:1045740003D904680B689C42F6D0551E002AE7D183
:10458400002030BD10B583070AD00300032102E0E8
:1045940001330B4205D01A78002AF9D1181A10BD3C
:1045A400030019680C4A0D4C8A188A4322420FD121
:1045B4005968094A04338A188A43224208D159683F
:1045C400054A04338A188A432242F1D000E00133B9
:1045D4001A78002AFBD1E1E7FFFEFEFE808080808E
:0445E400F8B5C04620
:1045E800030010B50068EFF3108472B60268002A61
:1045F800FCD0BFF35F8F04229A56002A0CDAD0222F
:104608000120120612681A711B68BFF35F8F00221F
:104618001A6084F3108810BD002901D10020F3E747
:104628000A60FBE7F7B50193036804001600002B46
:1046380005D18521154B164A1648FDF749FED023AA
:104648001B061F682168EFF3108372B60A68002AF8
:10465800FCD0BFF35F8F2179002522687F2907D915
:104668002771BFF35F8F156083F310880120FEBDAB
:10467800BFF35F8F156083F3108830000199FDF751
:1046880087F80028DED02800F1E7C046F24A00206B
:10469800454B00209E4A002073B501A9040016006E
:1046A8001D00FFF79DFF00280CD1D0221206019BA8
:1046B80012785BB252B2934204D032002B00200031
:1046C800FFF7B0FF76BD000010B50168EFF3108367
:1046D80072B60A68002AFCD0BFF35F8F02797F2A7E
:1046E80005D9B421074B084A0848FDF7F1FDFF2218
:1046F80002710268BFF35F8F0021116083F3108895
:1047080040BF10BD064B00203A4B00209E4A0020B7
:10471800084A10B51378002B0AD1802306480749A8
:104728005B051C68C45004338B42FAD10123137013
:1047380010BDC0468E5C0020145900100001001006
:1047480010B5014B984710BD155900208023F0B5CE
:104758000A1885B0029003919B039A4205D941211A
:104768001C4B1D4A1D48FDF7B3FD18261427338836
:104778001B493888984733881A49019038889847E0
:104788003388194905003888984733880400174941
:1047980038889847019B0600002B05D0002D03D0D0
:1047A800002C01D0002804D14921114B0A4A0B489A
:1047B800D9E7FFF7ADFF019B9847A8478022D82388
:1047C800039902985202A047B047FFF7B9FF05B016
:1047D800F0BDC046A85500202B570020D455002016
:1047E8004946000045580000524500004643000075
:1047F800315600208023F0B585B00292121801903E
:1048080003919B039A4205D958211B4B1B4A1C480C
:10481800FDF75EFD1826142733881A49388898470B
:104828003388194900903888984733881749050014
:104838003888984733880400154938889847009B7A
:104848000600002B05D0002D03D0002C01D0002835
:1048580004D160210F4B094A0948D9E7FFF758FFEF
:10486800009B9847A847029A03990198A047B04728
:10487800FFF766FF05B0F0BDA855002017570020C8
:10488800D455002049460000455800005250000009
:104898004643000084560020636861696E5F746F48
:1048A800203C3D204E554D5F444D415F4348414EAD
:1048B8004E454C5300433A2F50726F6772616D201A
:1048C80046696C65732F52617370626572727920E4
:1048D80050692F5069636F2053444B2076312E3531
:1048E8002E312F7069636F2D73646B2F7372632F72
:1048F8007270325F636F6D6D6F6E2F68617264776F
:104908006172655F646D612F696E636C7564652F94
:1049180068617264776172652F646D612E680063E7
:1049280074782D3E6F70636F6465203D3D20434D64
:10493800445F53594E4300433A2F5265706F736971
:10494800746F726965732F7270323034302D7365ED
:104958007269616C2D626F6F746C6F616465722F20
:104968006D61696E2E630073746174655F77616948
:10497800745F666F725F73796E63006368616E6EF1
:10498800656C5F636F6E6669675F7365745F6368A4
:1049980061696E5F746F000053594E430000000058
:1049A800000000000000000025010020524541449D
:1049B80002000000000000002D010020B5020020C8
:1049C8004353554D02000000010000004D01002036
:1049D8001503002043524343020000000100000079
:1049E80071010020290500204552415302000000B2
:1049F80000000000000000007902002057524954CE
:104A080002000000010000007901002005050020D7
:104A18005345414C03000000000000000000000066
:104A280095040020474F474F010000000000000098
:104A380000000000B9010020494E464F0000000068
:104A4800050000000000000005020020424F4F54FE
:104A580001000000000000002D0200203D0200209F
:104A680068775F69735F636C61696D656428626903
:104A780074732C206269745F696E646578290043D9
:104A88003A2F50726F6772616D2046696C65732F9B
:104A98005261737062657272792050692F50696330
:104AA8006F2053444B2076312E352E312F70696399
:104AB8006F2D73646B2F7372632F7270325F636F25
:104AC8006D6D6F6E2F68617264776172655F636C7C
:104AD80061696D2F636C61696D2E630068775F6330
:104AE8006C61696D5F636C65617200307831632059
:104AF8003D3D20282A696E7374293E3E3131750088
:104B0800433A2F50726F6772616D2046696C657306
:104B18002F5261737062657272792050692F5069E3
:104B2800636F2053444B2076312E352E312F706918
:104B3800636F2D73646B2F7372632F7270325F63B0
:104B48006F6D6D6F6E2F68617264776172655F69F2
:104B580072712F6972712E630064656C7461203EF6
:104B68003D202D323034382026262064656C74614F
:104B7800203C3D203230343620262620212864650A
:104B88006C746120262031290063757272656E7419
:104B9800203D3D205F5F756E68616E646C65645F83
:104BA800757365725F697271207C7C20637572729F
:104BB800656E74203D3D2068616E646C65720021ED
:104BC800657863657074696F6E207C7C2065786396
:104BD800657074696F6E203D3D206E756D202B20C9
:104BE800565441424C455F46495253545F495251CD
:104BF80000212864656C7461203E3E20313175299E
:104C08000066616C73650069735F736861726564DF
:104C18005F6972715F7261775F68616E646C6572FB
:104C280028736C6F745F68616E646C6572290065C7
:104C38007863657074696F6E00666F756E6400697D
:104C480072715F6164645F7461696C5F746F5F66E1
:104C58007265655F6C69737400696E736572745F01
:104C68006272616E63685F616E645F6C696E6B002F
:104C78006972715F72656D6F76655F68616E646C8D
:104C88006572006D616B655F6272616E6368007268
:104C980065736F6C76655F6272616E6368006972D6
:104CA800715F7365745F6578636C75736976655F4A
:104CB80068616E646C657200746F74616C00433A6D
:104CC8002F50726F6772616D2046696C65732F5241
:104CD80061737062657272792050692F5069636FD1
:104CE8002053444B2076312E352E312F7069636F57
:104CF8002D73646B2F7372632F636F6D6D6F6E2FDF
:104D08007069636F5F73796E632F6D757465782E44
:104D180063006D74782D3E636F72652E7370696ED3
:104D28005F6C6F636B006C6F636B5F69735F6F774A
:104D38006E65725F69645F76616C6964286D74780A
:104D48002D3E6F776E657229006D74782D3E656E05
:104D58007465725F636F756E74006D757465785FE6
:104D680065786974006D757465785F656E746572D1
:104D78005F626C6F636B5F756E74696C0069642049
:104D88002626206964203C3D20706F6F6C2D3E689C
:104D98006561702D3E6D61785F6E6F646573004369
:104DA8003A2F50726F6772616D2046696C65732F78
:104DB8005261737062657272792050692F5069630D
:104DC8006F2053444B2076312E352E312F70696376
:104DD8006F2D73646B2F7372632F636F6D6D6F6EBE
:104DE8002F7069636F5F74696D652F74696D652EC7
:104DF800630075735F73696E63655F626F6F7420BC
:104E08003C3D20494E5436345F4D415800433A2FBB
:104E180050726F6772616D2046696C65732F5261BD
:104E2800737062657272792050692F5069636F20C0
:104E380053444B2076312E352E312F7069636F2DF8
:104E480073646B2F7372632F636F6D6D6F6E2F704A
:104E580069636F5F626173652F696E636C75646502
:104E68002F7069636F2F74797065732E6800696499
:104E7800202626206964203C3D20686561702D3E0F
:104E88006D61785F6E6F64657300433A2F50726F7F
:104E98006772616D2046696C65732F526173706229
:104EA800657272792050692F5069636F2053444BA3
:104EB8002076312E352E312F7069636F2D73646B18
:104EC8002F7372632F636F6D6D6F6E2F7069636FD1
:104ED8005F7574696C2F696E636C7564652F706992
:104EE800636F2F7574696C2F70686561702E680028
:104EF800706172656E745F696400706172656E746A
:104F08005F696420213D206368696C645F6964009F
:104F18002170685F636F6E7461696E735F6E6F6432
:104F28006528706F6F6C2D3E686561702C20726506
:104F38007573655F6964290072656D6F7665645F76
:104F48006964203D3D206E6578745F696400636123
:104F58006C6C6261636B00706F6F6C2D3E616C618D
:104F6800726D5F696E5F70726F6772657373203DF3
:104F78003D206D616B655F7075626C69635F696424
:104F88002869645F686967682C206E6578745F6952
:104F98006429006964202626202170685F636F6E8B
:104FA8007461696E735F6E6F646528686561702CE3
:104FB800206964290021686561702D3E6672656507
:104FC8005F7461696C5F69640064656661756C74BF
:104FD8005F616C61726D5F706F6F6C5F696E697431
:104FE80069616C697A6564282900616C61726D5F1A
:104FF800696420213D20706F6F6C2D3E616C617279
:105008006D5F696E5F70726F67726573730072634C
:1050180000417474656D7074656420746F20736CDE
:1050280065657020696E73696465206F6620616EBE
:1050380020657863657074696F6E2068616E646C52
:1050480065723B2075736520627573795F77616956
:105058007420696620796F75206D75737400616CB2
:1050680061726D5F706F6F6C5F63616E63656C5FBB
:10507800616C61726D00616C61726D5F706F6F6CF5
:105088005F6765745F64656661756C7400676574F5
:105098005F656E7472795F69645F686967680070DC
:1050A800685F667265655F6E6F64650070685F61F2
:1050B80064645F6368696C645F6E6F6465007068E0
:1050C8005F6765745F6E6F6465006164645F616CDF
:1050D80061726D5F756E6465725F6C6F636B00758E
:1050E80070646174655F75735F73696E63655F6231
:1050F8006F6F7400616C61726D5F706F6F6C5F6170
:105108006C61726D5F63616C6C6261636B00676593
:10511800745F656E74727900486172647761726554
:1051280020616C61726D20256420616C7265616418
:105138007920636C61696D65640074696D65725F7F
:1051480068772D3E696E74732026203175203C3CAB
:1051580020616C61726D5F6E756D00433A2F5072FD
:105168006F6772616D2046696C65732F5261737049
:1051780062657272792050692F5069636F205344B9
:105188004B2076312E352E312F7069636F2D736465
:105198006B2F7372632F7270325F636F6D6D6F6EFA
:1051A8002F68617264776172655F74696D65722FCB
:1051B80074696D65722E63006861726477617265E7
:1051C8005F616C61726D5F7365745F74617267654E
:1051D80074007570646174655F75735F73696E637D
:1051E800655F626F6F7400433A2F50726F67726128
:1051F8006D2046696C65732F5261737062657272B7
:10520800792050692F5069636F2053444B207631C1
:105218002E352E312F7069636F2D73646B2F737267
:10522800632F636F6D6D6F6E2F7069636F5F757439
:10523800696C2F70686561702E63002170685F6704
:1052480065745F6E6F646528686561702C20726F85
:105258006F745F6964292D3E7369626C696E6700BB
:105268002170685F6765745F6E6F64652868656143
:10527800702C20726F6F745F6964292D3E706172A3
:10528800656E74006E65775F7375625F74726565CD
:1052980020213D20686561702D3E726F6F745F69D3
:1052A800640070685F72656D6F76655F616E645FDC
:1052B800667265655F6E6F64650070685F72656DC4
:1052C8006F76655F616E795F686561640070685FBD
:1052D8006164645F6368696C645F6E6F64650070C5
:1052E800685F6765745F6E6F6465007372635F669D
:1052F800726571203E3D206672657100433A2F50F9
:10530800726F6772616D2046696C65732F526173A5
:105318007062657272792050692F5069636F2053EB
:10532800444B2076312E352E312F7069636F2D73E3
:10533800646B2F7372632F7270325F636F6D6D6F62
:105348006E2F68617264776172655F636C6F636BFF
:10535800732F636C6F636B732E6300636C6F636B87
:105368005F636F6E6669677572650076636F5F6607
:10537800726571203E3D20285049434F5F504C4C88
:105388005F56434F5F4D494E5F465245515F4B480C
:105398005A202A204B485A292026262076636F5FF8
:1053A80066726571203C3D20285049434F5F504C40
:1053B8004C5F56434F5F4D41585F465245515F4BD6
:1053C800485A202A204B485A2900433A2F50726FD6
:1053D8006772616D2046696C65732F5261737062E4
:1053E800657272792050692F5069636F2053444B5E
:1053F8002076312E352E312F7069636F2D73646BD3
:105408002F7372632F7270325F636F6D6D6F6E2FC3
:1054180068617264776172655F706C6C2F706C6C18
:105428002E63006662646976203E3D203136202670
:1054380026206662646976203C3D2033323000289D
:10544800706F73745F64697631203E3D2031202689
:105458002620706F73745F64697631203C3D203775
:10546800292026262028706F73745F64697632209D
:105478003E3D203120262620706F73745F64697664
:1054880032203C3D20372900706C6C5F696E69746E
:10549800002C2066756E6374696F6E3A2000617324
:1054A80073657274696F6E202225732220666169A4
:1054B8006C65643A2066696C6520222573222C206D
:1054C8006C696E65202564257325730A0031203DBB
:1054D8003D202875696E747074725F74296C2D3E56
:1054E8007370696E5F6C6F636B00433A2F50726F15
:1054F8006772616D2046696C65732F5261737062C3
:10550800657272792050692F5069636F2053444B3C
:105518002076312E352E312F7069636F2D73646BB1
:105528002F7372632F7270325F636F6D6D6F6E2FA2
:105538007069636F5F72756E74696D652F72756ED1
:1055480074696D652E63000A2A2A2A2050414E4943
:1055580043202A2A2A0A0072756E74696D655F698C
:105568006E697400666E692B00666E69006E616E06
:1055780000666E692D000000000000000000F03F8A
:105588000000000000002440000000000000594016
:105598000000000000408F40000000000088C34069
:1055A80000000000006AF8400000000080842E41DE
:1055B80000000000D01263410000000084D797412A
:1055C8000000000065CDCD412A282875696E743821
:1055D8005F74202A29726F6D5F646174615F6C6FFC
:1055E8006F6B757028726F6D5F7461626C655F6355
:1055F8006F6465282753272C2027462729292D3211
:1056080029202A2034203E3D2053465F5441424CF5
:10561800455F56325F53495A4500433A2F50726FDF
:105628006772616D2046696C65732F526173706291
:10563800657272792050692F5069636F2053444B0B
:105648002076312E352E312F7069636F2D73646B80
:105658002F7372632F7270325F636F6D6D6F6E2F71
:105668007069636F5F646F75626C652F646F7562D4
:105678006C655F696E69745F726F6D2E63005F5F42
:1056880061656162695F646F75626C655F696E69A7
:1056980074002A282875696E74385F74202A297264
:1056A8006F6D5F7461626C652D3229202A20342069
:1056B8003E3D2053465F5441424C455F56325F534E
:1056C800495A4500433A2F50726F6772616D204600
:1056D800696C65732F5261737062657272792050BC
:1056E800692F5069636F2053444B2076312E352E35
:1056F800312F7069636F2D73646B2F7372632F7210
:1057080070325F636F6D6D6F6E2F7069636F5F6668
:105718006C6F61742F666C6F61745F696E69745F1A
:10572800726F6D2E63005F5F61656162695F666CB1
:105738006F61745F696E69740044656275670062C1
:105748006F6F74325F7732357130383000312E35F3
:105758002E31007069636F00626F6F746C6F6164E3
:105768006572004F637420313020323032330006C6
:10577800005250D3F075421955002006005250E1EE
:1057880082887F1F55002006005250BBFF3CB6336D
:105798005500200D0A7570646174655F75735F73D9
:1057A800696E63655F626F6F74004E6F20444D4190
:1057B800206368616E6E656C732061726520617626
:1057C80061696C61626C6500666C6173685F6F66C5
:1057D8006673202B20636F756E74203C3D20504902
:1057E800434F5F464C4153485F53495A455F4259BE
:1057F80054455300433A2F50726F6772616D2046CB
:10580800696C65732F52617370626572727920508A
:10581800692F5069636F2053444B2076312E352E03
:10582800312F7069636F2D73646B2F7372632F72DE
:1058380070325F636F6D6D6F6E2F68617264776130
:1058480072655F666C6173682F666C6173682E633E
:1058580000636F6E6E6563745F696E7465726E6106
:105868006C5F666C61736820262620666C617368BD
:105878005F657869745F78697020262620666C6198
:1058880073685F72616E67655F6572617365202614
:105898002620666C6173685F666C7573685F636108
:1058A80063686500636F6E6E6563745F696E7465C7
:1058B800726E616C5F666C61736820262620666C68
:1058C8006173685F657869745F786970202626203F
:1058D800666C6173685F72616E67655F70726F672F
:1058E80072616D20262620666C6173685F666C7530
:1058F80073685F636163686500636F6E6E65637488
:105908005F696E7465726E616C5F666C6173682046
:10591800262620666C6173685F657869745F7869AC
:105928007020262620666C6173685F666C757368E4
:105938005F636163686500666C6173685F72616E5E
:1059480067655F70726F6772616D00666C6173681E
:105958005F72616E67655F65726173650000000064
:10596800100000000000000000000100000000001E
:10597800000000000000020000000000000000001D
:105988000000030000000000000000000000FF000D
:105998000000000001B5486801318E460047704696
:1059A80009380149884701BD410C0020A45700204F
:1059B8000000000000580020905C0020000000005B
:1059C80000000000A05C00200000000000000000B3
:1059D80010000000000000000000000000000000AF
:1059E800503300004C3300005433000052330000A1
:1059F8004D5300004D430000533400004334000071
:105A0800000000000000000019400020A93100201B
:105A180099380020F53E0020ED000020F1420020DA
:04000005100001E9FD
:00000001FF
